{
  "_format": "hh-sol-artifact-1",
  "contractName": "DataRegistry",
  "sourceName": "contracts/DataRegistry.sol",
  "abi": [
    {
      "anonymous": false,
      "inputs": [
        {
          "indexed": true,
          "internalType": "address",
          "name": "owner",
          "type": "address"
        },
        {
          "indexed": true,
          "internalType": "bytes32",
          "name": "ciphertextHash",
          "type": "bytes32"
        },
        {
          "indexed": false,
          "internalType": "bytes32",
          "name": "manifestHash",
          "type": "bytes32"
        },
        {
          "indexed": false,
          "internalType": "string",
          "name": "locator",
          "type": "string"
        }
      ],
      "name": "Registered",
      "type": "event"
    },
    {
      "inputs": [
        {
          "internalType": "bytes32",
          "name": "ciphertextHash",
          "type": "bytes32"
        }
      ],
      "name": "exists",
      "outputs": [
        {
          "internalType": "bool",
          "name": "",
          "type": "bool"
        }
      ],
      "stateMutability": "view",
      "type": "function"
    },
    {
      "inputs": [
        {
          "internalType": "bytes32",
          "name": "",
          "type": "bytes32"
        }
      ],
      "name": "records",
      "outputs": [
        {
          "internalType": "address",
          "name": "owner",
          "type": "address"
        },
        {
          "internalType": "bytes32",
          "name": "ciphertextHash",
          "type": "bytes32"
        },
        {
          "internalType": "bytes32",
          "name": "manifestHash",
          "type": "bytes32"
        },
        {
          "internalType": "bytes4",
          "name": "compAlg",
          "type": "bytes4"
        },
        {
          "internalType": "bytes4",
          "name": "encAlg",
          "type": "bytes4"
        },
        {
          "internalType": "uint64",
          "name": "size",
          "type": "uint64"
        },
        {
          "internalType": "string",
          "name": "locator",
          "type": "string"
        },
        {
          "internalType": "uint64",
          "name": "createdAt",
          "type": "uint64"
        }
      ],
      "stateMutability": "view",
      "type": "function"
    },
    {
      "inputs": [
        {
          "internalType": "bytes32",
          "name": "ciphertextHash",
          "type": "bytes32"
        },
        {
          "internalType": "bytes32",
          "name": "manifestHash",
          "type": "bytes32"
        },
        {
          "internalType": "bytes4",
          "name": "compAlg",
          "type": "bytes4"
        },
        {
          "internalType": "bytes4",
          "name": "encAlg",
          "type": "bytes4"
        },
        {
          "internalType": "uint64",
          "name": "size",
          "type": "uint64"
        },
        {
          "internalType": "string",
          "name": "locator",
          "type": "string"
        }
      ],
      "name": "register",
      "outputs": [],
      "stateMutability": "nonpayable",
      "type": "function"
    }
  ],
  "bytecode": "0x608060405234801561001057600080fd5b50610d74806100206000396000f3fe608060405234801561001057600080fd5b50600436106100415760003560e01c806301e647251461004657806338a699a41461007d578063ef92c8a4146100ad575b600080fd5b610060600480360381019061005b91906105bb565b6100c9565b604051610074989796959493929190610726565b60405180910390f35b610097600480360381019061009291906105bb565b6101fb565b6040516100a491906107c6565b60405180910390f35b6100c760048036038101906100c2919061089e565b610269565b005b60006020528060005260406000206000915090508060000160009054906101000a900473ffffffffffffffffffffffffffffffffffffffff16908060010154908060020154908060030160009054906101000a900460e01b908060030160049054906101000a900460e01b908060030160089054906101000a900467ffffffffffffffff169080600401805461015e9061097c565b80601f016020809104026020016040519081016040528092919081815260200182805461018a9061097c565b80156101d75780601f106101ac576101008083540402835291602001916101d7565b820191906000526020600020905b8154815290600101906020018083116101ba57829003601f168201915b5050505050908060050160009054906101000a900467ffffffffffffffff16905088565b60008073ffffffffffffffffffffffffffffffffffffffff1660008084815260200190815260200160002060000160009054906101000a900473ffffffffffffffffffffffffffffffffffffffff1673ffffffffffffffffffffffffffffffffffffffff1614159050919050565b600073ffffffffffffffffffffffffffffffffffffffff1660008089815260200190815260200160002060000160009054906101000a900473ffffffffffffffffffffffffffffffffffffffff1673ffffffffffffffffffffffffffffffffffffffff161461030d576040517f08c379a0000000000000000000000000000000000000000000000000000000008152600401610304906109f9565b60405180910390fd5b6040518061010001604052803373ffffffffffffffffffffffffffffffffffffffff168152602001888152602001878152602001867bffffffffffffffffffffffffffffffffffffffffffffffffffffffff19168152602001857bffffffffffffffffffffffffffffffffffffffffffffffffffffffff191681526020018467ffffffffffffffff16815260200183838080601f016020809104026020016040519081016040528093929190818152602001838380828437600081840152601f19601f8201169050808301925050505050505081526020014267ffffffffffffffff1681525060008089815260200190815260200160002060008201518160000160006101000a81548173ffffffffffffffffffffffffffffffffffffffff021916908373ffffffffffffffffffffffffffffffffffffffff160217905550602082015181600101556040820151816002015560608201518160030160006101000a81548163ffffffff021916908360e01c021790555060808201518160030160046101000a81548163ffffffff021916908360e01c021790555060a08201518160030160086101000a81548167ffffffffffffffff021916908367ffffffffffffffff16021790555060c08201518160040190816104ec9190610bfe565b5060e08201518160050160006101000a81548167ffffffffffffffff021916908367ffffffffffffffff160217905550905050863373ffffffffffffffffffffffffffffffffffffffff167f3b6651dcb281d2d5eb3e439ecd1b03a03d8f2cf6599957fe8bd27eb1ebbf2b6688858560405161056a93929190610d0c565b60405180910390a350505050505050565b600080fd5b600080fd5b6000819050919050565b61059881610585565b81146105a357600080fd5b50565b6000813590506105b58161058f565b92915050565b6000602082840312156105d1576105d061057b565b5b60006105df848285016105a6565b91505092915050565b600073ffffffffffffffffffffffffffffffffffffffff82169050919050565b6000610613826105e8565b9050919050565b61062381610608565b82525050565b61063281610585565b82525050565b60007fffffffff0000000000000000000000000000000000000000000000000000000082169050919050565b61066d81610638565b82525050565b600067ffffffffffffffff82169050919050565b61069081610673565b82525050565b600081519050919050565b600082825260208201905092915050565b60005b838110156106d05780820151818401526020810190506106b5565b60008484015250505050565b6000601f19601f8301169050919050565b60006106f882610696565b61070281856106a1565b93506107128185602086016106b2565b61071b816106dc565b840191505092915050565b60006101008201905061073c600083018b61061a565b610749602083018a610629565b6107566040830189610629565b6107636060830188610664565b6107706080830187610664565b61077d60a0830186610687565b81810360c083015261078f81856106ed565b905061079e60e0830184610687565b9998505050505050505050565b60008115159050919050565b6107c0816107ab565b82525050565b60006020820190506107db60008301846107b7565b92915050565b6107ea81610638565b81146107f557600080fd5b50565b600081359050610807816107e1565b92915050565b61081681610673565b811461082157600080fd5b50565b6000813590506108338161080d565b92915050565b600080fd5b600080fd5b600080fd5b60008083601f84011261085e5761085d610839565b5b8235905067ffffffffffffffff81111561087b5761087a61083e565b5b60208301915083600182028301111561089757610896610843565b5b9250929050565b600080600080600080600060c0888a0312156108bd576108bc61057b565b5b60006108cb8a828b016105a6565b97505060206108dc8a828b016105a6565b96505060406108ed8a828b016107f8565b95505060606108fe8a828b016107f8565b945050608061090f8a828b01610824565b93505060a088013567ffffffffffffffff8111156109305761092f610580565b5b61093c8a828b01610848565b925092505092959891949750929550565b7f4e487b7100000000000000000000000000000000000000000000000000000000600052602260045260246000fd5b6000600282049050600182168061099457607f821691505b6020821081036109a7576109a661094d565b5b50919050565b7f6578697374730000000000000000000000000000000000000000000000000000600082015250565b60006109e36006836106a1565b91506109ee826109ad565b602082019050919050565b60006020820190508181036000830152610a12816109d6565b9050919050565b7f4e487b7100000000000000000000000000000000000000000000000000000000600052604160045260246000fd5b60008190508160005260206000209050919050565b60006020601f8301049050919050565b600082821b905092915050565b600060088302610aaa7fffffffffffffffffffffffffffffffffffffffffffffffffffffffffffffffff82610a6d565b610ab48683610a6d565b95508019841693508086168417925050509392505050565b6000819050919050565b6000819050919050565b6000610afb610af6610af184610acc565b610ad6565b610acc565b9050919050565b6000819050919050565b610b1583610ae0565b610b29610b2182610b02565b848454610a7a565b825550505050565b600090565b610b3e610b31565b610b49818484610b0c565b505050565b5b81811015610b6d57610b62600082610b36565b600181019050610b4f565b5050565b601f821115610bb257610b8381610a48565b610b8c84610a5d565b81016020851015610b9b578190505b610baf610ba785610a5d565b830182610b4e565b50505b505050565b600082821c905092915050565b6000610bd560001984600802610bb7565b1980831691505092915050565b6000610bee8383610bc4565b9150826002028217905092915050565b610c0782610696565b67ffffffffffffffff811115610c2057610c1f610a19565b5b610c2a825461097c565b610c35828285610b71565b600060209050601f831160018114610c685760008415610c56578287015190505b610c608582610be2565b865550610cc8565b601f198416610c7686610a48565b60005b82811015610c9e57848901518255600182019150602085019450602081019050610c79565b86831015610cbb5784890151610cb7601f891682610bc4565b8355505b6001600288020188555050505b505050505050565b82818337600083830152505050565b6000610ceb83856106a1565b9350610cf8838584610cd0565b610d01836106dc565b840190509392505050565b6000604082019050610d216000830186610629565b8181036020830152610d34818486610cdf565b905094935050505056fea26469706673582212207928caa61e5c72b5deccd3c01fe8b3b2583b6d29048c90f165d50be1572968d464736f6c63430008180033",
  "linkReferences": {},
  "deployedLinkReferences": {}
}