{
  "_format": "hh-sol-artifact-1",
  "contractName": "WalletOracle",
  "sourceName": "contracts/WalletOracle.sol",
  "abi": [
    {
      "inputs": [],
      "stateMutability": "nonpayable",
      "type": "constructor"
    },
    {
      "anonymous": false,
      "inputs": [
        {
          "indexed": true,
          "internalType": "bytes32",
          "name": "jobId",
          "type": "bytes32"
        },
        {
          "indexed": true,
          "internalType": "address",
          "name": "oracle",
          "type": "address"
        },
        {
          "indexed": false,
          "internalType": "bytes32",
          "name": "outputHash",
          "type": "bytes32"
        }
      ],
      "name": "JobFulfilled",
      "type": "event"
    },
    {
      "anonymous": false,
      "inputs": [
        {
          "indexed": true,
          "internalType": "bytes32",
          "name": "jobId",
          "type": "bytes32"
        },
        {
          "indexed": true,
          "internalType": "address",
          "name": "user",
          "type": "address"
        },
        {
          "indexed": false,
          "internalType": "bytes32",
          "name": "inputHash",
          "type": "bytes32"
        }
      ],
      "name": "JobPosted",
      "type": "event"
    },
    {
      "anonymous": false,
      "inputs": [
        {
          "indexed": true,
          "internalType": "address",
          "name": "user",
          "type": "address"
        },
        {
          "indexed": true,
          "internalType": "address",
          "name": "oracle",
          "type": "address"
        }
      ],
      "name": "OracleSet",
      "type": "event"
    },
    {
      "inputs": [],
      "name": "DOMAIN_SEPARATOR",
      "outputs": [
        {
          "internalType": "bytes32",
          "name": "",
          "type": "bytes32"
        }
      ],
      "stateMutability": "view",
      "type": "function"
    },
    {
      "inputs": [],
      "name": "RESULT_TYPEHASH",
      "outputs": [
        {
          "internalType": "bytes32",
          "name": "",
          "type": "bytes32"
        }
      ],
      "stateMutability": "view",
      "type": "function"
    },
    {
      "inputs": [
        {
          "internalType": "bytes32",
          "name": "jobId",
          "type": "bytes32"
        },
        {
          "internalType": "bytes32",
          "name": "outputHash",
          "type": "bytes32"
        },
        {
          "internalType": "uint256",
          "name": "timestamp",
          "type": "uint256"
        },
        {
          "internalType": "uint8",
          "name": "v",
          "type": "uint8"
        },
        {
          "internalType": "bytes32",
          "name": "r",
          "type": "bytes32"
        },
        {
          "internalType": "bytes32",
          "name": "s",
          "type": "bytes32"
        }
      ],
      "name": "fulfillJob",
      "outputs": [],
      "stateMutability": "nonpayable",
      "type": "function"
    },
    {
      "inputs": [
        {
          "internalType": "bytes32",
          "name": "",
          "type": "bytes32"
        }
      ],
      "name": "jobs",
      "outputs": [
        {
          "internalType": "address",
          "name": "submitter",
          "type": "address"
        },
        {
          "internalType": "bytes32",
          "name": "inputHash",
          "type": "bytes32"
        },
        {
          "internalType": "bytes32",
          "name": "outputHash",
          "type": "bytes32"
        },
        {
          "internalType": "uint64",
          "name": "createdAt",
          "type": "uint64"
        },
        {
          "internalType": "bool",
          "name": "fulfilled",
          "type": "bool"
        }
      ],
      "stateMutability": "view",
      "type": "function"
    },
    {
      "inputs": [
        {
          "internalType": "address",
          "name": "",
          "type": "address"
        }
      ],
      "name": "oracleOf",
      "outputs": [
        {
          "internalType": "address",
          "name": "",
          "type": "address"
        }
      ],
      "stateMutability": "view",
      "type": "function"
    },
    {
      "inputs": [
        {
          "internalType": "bytes32",
          "name": "jobId",
          "type": "bytes32"
        },
        {
          "internalType": "bytes32",
          "name": "inputHash",
          "type": "bytes32"
        }
      ],
      "name": "postJob",
      "outputs": [],
      "stateMutability": "nonpayable",
      "type": "function"
    },
    {
      "inputs": [
        {
          "internalType": "address",
          "name": "oracle",
          "type": "address"
        }
      ],
      "name": "setOracle",
      "outputs": [],
      "stateMutability": "nonpayable",
      "type": "function"
    }
  ],
  "bytecode": "0x60a06040523480156200001157600080fd5b507f8b73c3c69bb8fe3d512ecc4cf759cc79239f7b179b0ffacaa9a75d522b39400f6040518060400160405280600c81526020017f57616c6c65744f7261636c650000000000000000000000000000000000000000815250805190602001206040518060400160405280600181526020017f3100000000000000000000000000000000000000000000000000000000000000815250805190602001204630604051602001620000c595949392919062000163565b6040516020818303038152906040528051906020012060808181525050620001c0565b6000819050919050565b620000fd81620000e8565b82525050565b6000819050919050565b620001188162000103565b82525050565b600073ffffffffffffffffffffffffffffffffffffffff82169050919050565b60006200014b826200011e565b9050919050565b6200015d816200013e565b82525050565b600060a0820190506200017a6000830188620000f2565b620001896020830187620000f2565b620001986040830186620000f2565b620001a760608301856200010d565b620001b6608083018462000152565b9695505050505050565b608051610ef7620001e36000396000818161032c015261050b0152610ef76000f3fe608060405234801561001057600080fd5b506004361061007d5760003560e01c806338ed7cfc1161005b57806338ed7cfc146100da5780635713f9ae1461010e5780637adbf9731461012a578063f890e286146101465761007d565b8063123f8e9f1461008257806331e370fa146100a05780633644e515146100bc575b600080fd5b61008a610176565b60405161009791906108a0565b60405180910390f35b6100ba60048036038101906100b5919061095b565b61019a565b005b6100c4610509565b6040516100d191906108a0565b60405180910390f35b6100f460048036038101906100ef91906109e8565b61052d565b604051610105959493929190610a94565b60405180910390f35b61012860048036038101906101239190610ae7565b6105a4565b005b610144600480360381019061013f9190610b53565b610779565b005b610160600480360381019061015b9190610b53565b610854565b60405161016d9190610b80565b60405180910390f35b7fd60e02474ebfcbde5a66b253c6cf6c9d125d25663e85e1461377a87e1c8e577d81565b6000806000888152602001908152602001600020905060008160030160009054906101000a900467ffffffffffffffff1667ffffffffffffffff16141580156101f257508060030160089054906101000a900460ff16155b610231576040517f08c379a000000000000000000000000000000000000000000000000000000000815260040161022890610bf8565b60405180910390fd5b6000600160008360000160009054906101000a900473ffffffffffffffffffffffffffffffffffffffff1673ffffffffffffffffffffffffffffffffffffffff1673ffffffffffffffffffffffffffffffffffffffff16815260200190815260200160002060009054906101000a900473ffffffffffffffffffffffffffffffffffffffff169050600073ffffffffffffffffffffffffffffffffffffffff168173ffffffffffffffffffffffffffffffffffffffff1603610328576040517f08c379a000000000000000000000000000000000000000000000000000000000815260040161031f90610c64565b60405180910390fd5b60007f00000000000000000000000000000000000000000000000000000000000000007fd60e02474ebfcbde5a66b253c6cf6c9d125d25663e85e1461377a87e1c8e577d8a85600101548b8b604051602001610388959493929190610c93565b604051602081830303815290604052805190602001206040516020016103af929190610d5e565b6040516020818303038152906040528051906020012090506000600182888888604051600081526020016040526040516103ec9493929190610da4565b6020604051602081039080840390855afa15801561040e573d6000803e3d6000fd5b5050506020604051035190508273ffffffffffffffffffffffffffffffffffffffff168173ffffffffffffffffffffffffffffffffffffffff1614610488576040517f08c379a000000000000000000000000000000000000000000000000000000000815260040161047f90610e35565b60405180910390fd5b60018460030160086101000a81548160ff0219169083151502179055508884600201819055508073ffffffffffffffffffffffffffffffffffffffff168a7f3e0350cbdd1cbb46ffad0d4f803cb9437571ef71d0ef331c5558b383f976eff48b6040516104f591906108a0565b60405180910390a350505050505050505050565b7f000000000000000000000000000000000000000000000000000000000000000081565b60006020528060005260406000206000915090508060000160009054906101000a900473ffffffffffffffffffffffffffffffffffffffff16908060010154908060020154908060030160009054906101000a900467ffffffffffffffff16908060030160089054906101000a900460ff16905085565b600080600084815260200190815260200160002060030160009054906101000a900467ffffffffffffffff1667ffffffffffffffff161461061a576040517f08c379a000000000000000000000000000000000000000000000000000000000815260040161061190610ea1565b60405180910390fd5b6040518060a001604052803373ffffffffffffffffffffffffffffffffffffffff1681526020018281526020016000801b81526020014267ffffffffffffffff1681526020016000151581525060008084815260200190815260200160002060008201518160000160006101000a81548173ffffffffffffffffffffffffffffffffffffffff021916908373ffffffffffffffffffffffffffffffffffffffff160217905550602082015181600101556040820151816002015560608201518160030160006101000a81548167ffffffffffffffff021916908367ffffffffffffffff16021790555060808201518160030160086101000a81548160ff0219169083151502179055509050503373ffffffffffffffffffffffffffffffffffffffff16827f8531a71f5f9869e901c2f69d33d7a08b172d8008e4cea3e07a80f9fde94829008360405161076d91906108a0565b60405180910390a35050565b80600160003373ffffffffffffffffffffffffffffffffffffffff1673ffffffffffffffffffffffffffffffffffffffff16815260200190815260200160002060006101000a81548173ffffffffffffffffffffffffffffffffffffffff021916908373ffffffffffffffffffffffffffffffffffffffff1602179055508073ffffffffffffffffffffffffffffffffffffffff163373ffffffffffffffffffffffffffffffffffffffff167fc1d3048301c0d23629a2532c8defa6d68f8e1a0e4157918769e9fb1b2eeb888e60405160405180910390a350565b60016020528060005260406000206000915054906101000a900473ffffffffffffffffffffffffffffffffffffffff1681565b6000819050919050565b61089a81610887565b82525050565b60006020820190506108b56000830184610891565b92915050565b600080fd5b6108c981610887565b81146108d457600080fd5b50565b6000813590506108e6816108c0565b92915050565b6000819050919050565b6108ff816108ec565b811461090a57600080fd5b50565b60008135905061091c816108f6565b92915050565b600060ff82169050919050565b61093881610922565b811461094357600080fd5b50565b6000813590506109558161092f565b92915050565b60008060008060008060c08789031215610978576109776108bb565b5b600061098689828a016108d7565b965050602061099789828a016108d7565b95505060406109a889828a0161090d565b94505060606109b989828a01610946565b93505060806109ca89828a016108d7565b92505060a06109db89828a016108d7565b9150509295509295509295565b6000602082840312156109fe576109fd6108bb565b5b6000610a0c848285016108d7565b91505092915050565b600073ffffffffffffffffffffffffffffffffffffffff82169050919050565b6000610a4082610a15565b9050919050565b610a5081610a35565b82525050565b600067ffffffffffffffff82169050919050565b610a7381610a56565b82525050565b60008115159050919050565b610a8e81610a79565b82525050565b600060a082019050610aa96000830188610a47565b610ab66020830187610891565b610ac36040830186610891565b610ad06060830185610a6a565b610add6080830184610a85565b9695505050505050565b60008060408385031215610afe57610afd6108bb565b5b6000610b0c858286016108d7565b9250506020610b1d858286016108d7565b9150509250929050565b610b3081610a35565b8114610b3b57600080fd5b50565b600081359050610b4d81610b27565b92915050565b600060208284031215610b6957610b686108bb565b5b6000610b7784828501610b3e565b91505092915050565b6000602082019050610b956000830184610a47565b92915050565b600082825260208201905092915050565b7f626164206a6f6200000000000000000000000000000000000000000000000000600082015250565b6000610be2600783610b9b565b9150610bed82610bac565b602082019050919050565b60006020820190508181036000830152610c1181610bd5565b9050919050565b7f6e6f206f7261636c650000000000000000000000000000000000000000000000600082015250565b6000610c4e600983610b9b565b9150610c5982610c18565b602082019050919050565b60006020820190508181036000830152610c7d81610c41565b9050919050565b610c8d816108ec565b82525050565b600060a082019050610ca86000830188610891565b610cb56020830187610891565b610cc26040830186610891565b610ccf6060830185610891565b610cdc6080830184610c84565b9695505050505050565b600081905092915050565b7f1901000000000000000000000000000000000000000000000000000000000000600082015250565b6000610d27600283610ce6565b9150610d3282610cf1565b600282019050919050565b6000819050919050565b610d58610d5382610887565b610d3d565b82525050565b6000610d6982610d1a565b9150610d758285610d47565b602082019150610d858284610d47565b6020820191508190509392505050565b610d9e81610922565b82525050565b6000608082019050610db96000830187610891565b610dc66020830186610d95565b610dd36040830185610891565b610de06060830184610891565b95945050505050565b7f6261642073696700000000000000000000000000000000000000000000000000600082015250565b6000610e1f600783610b9b565b9150610e2a82610de9565b602082019050919050565b60006020820190508181036000830152610e4e81610e12565b9050919050565b7f6a6f622065786973747300000000000000000000000000000000000000000000600082015250565b6000610e8b600a83610b9b565b9150610e9682610e55565b602082019050919050565b60006020820190508181036000830152610eba81610e7e565b905091905056fea2646970667358221220d652d144672f762dbd0c973013caff5d866a71c5a439fe64db99dfe3b680755864736f6c63430008180033",
  "linkReferences": {},
  "deployedLinkReferences": {}
}